:100000000C942A000C9447000C9447000C94470071
:100010000C9447000C9447000C9447000C94470044
:100020000C9447000C9447000C9447000C94470034
:100030000C9447000C9447000C9447000C94470024
:100040000C9447000C9447000C9447000C94470014
:100050000C94470011241FBECFE5D8E0DEBFCDBF12
:1000600010E0A0E6B0E0E2ECF7E002C005900D92EF
:10007000A639B107D9F720E0A6E9B0E001C01D928A
:10008000A639B207E1F70E946E030C94DF030C94CB
:1000900000003E9A3F9A3D9A359A309A319A329AA8
:1000A000339A80B7379A0895369A349BFECF64B15D
:1000B00044EF51E0649F9001659F300D1124232F80
:1000C00026952695FC012083118208954423B9F1D9
:1000D000413009F06BC0813089F028F08230C9F0DE
:1000E000833011F108952AB381E090E002C0880FB7
:1000F000991F6A95E2F7822B8ABB089527B381E0A6
:1001000090E002C0880F991F6A95E2F7822B87BBA7
:10011000089524B381E090E002C0880F991F6A958A
:10012000E2F7822B84BB089521B381E090E002C006
:10013000880F991F6A95E2F7822B81BB0895813061
:1001400091F028F08230D9F0833029F108952AB354
:1001500081E090E002C0880F991F6A95E2F78095D0
:1001600082238ABB089527B381E090E002C0880F04
:10017000991F6A95E2F78095822387BB089524B37F
:1001800081E090E002C0880F991F6A95E2F78095A0
:10019000822384BB089521B381E090E002C0880FE0
:1001A000991F6A95E2F78095822381BB08954423C5
:1001B000B9F1413009F06BC0813089F028F082300C
:1001C000C9F0833011F108952BB381E090E002C0B3
:1001D000880F991F6A95E2F7822B8BBB089528B38D
:1001E00081E090E002C0880F991F6A95E2F7822BA8
:1001F00088BB089525B381E090E002C0880F991F65
:100200006A95E2F7822B85BB089522B381E090E0E6
:1002100002C0880F991F6A95E2F7822B82BB08956E
:10022000813091F028F08230D9F0833029F108959F
:100230002BB381E090E002C0880F991F6A95E2F726
:10024000809582238BBB089528B381E090E002C0A3
:10025000880F991F6A95E2F78095822388BB0895DD
:1002600025B381E090E002C0880F991F6A95E2F7FC
:100270008095822385BB089522B381E090E002C07F
:10028000880F991F6A95E2F78095822382BB0895B3
:10029000813089F028F08230C9F0833011F108955F
:1002A00089B390E002C0959587956A95E2F78170D1
:1002B000FA018083089586B390E002C095958795F2
:1002C0006A95E2F78170FA018083089583B390E024
:1002D00002C0959587956A95E2F78170FA0180834F
:1002E000089580B390E002C0959587956A95E2F7EE
:1002F0008170FA0180830895813089F028F082307E
:10030000C9F0833011F108952BB381E090E002C071
:10031000880F991F6A95E2F7822B8BBB089528B34B
:1003200081E090E002C0880F991F6A95E2F7822B66
:1003300088BB089525B381E090E002C0880F991F23
:100340006A95E2F7822B85BB089522B381E090E0A5
:1003500002C0880F991F6A95E2F7822B82BB08952D
:1003600041E060E083E00E94660041E061E083E0FC
:100370000E94660041E062E083E00E94660041E086
:1003800063E083E00E94660040E064E083E00E9456
:10039000660040E065E083E00E94660040E066E0C1
:1003A00083E00E94660040E067E083E00E94660010
:1003B00064E083E00E947C0165E083E00E947C01B0
:1003C00066E083E00E947C0167E083E00E947C019C
:1003D00041E060E083E00E94D70041E061E083E01B
:1003E0000E94D70041E062E083E00E94D70041E034
:1003F00063E083E00E94D7000895BF92CF92DF921E
:10040000EF92FF920F931F93CF93DF931F92CDB77D
:10041000DEB719820F2EF0E6CF2EF0E0DF2EF02DA2
:10042000B12C00E040E0602F83E00E94D70076010D
:1004300014E0AE014F5F5F4F612F83E00E944801DF
:100440008981811112C0F701B080AE014F5F5F4F0B
:10045000612F83E00E94480189818823B1F38FE3F3
:100460009CE90197F1F700C000001F5F94E0E90EDE
:10047000F11C1830F1F641E0602F83E00E94D700B4
:100480000F5FEFEFCE1ADE0A043061F68B2D0F906E
:10049000DF91CF911F910F91FF90EF90DF90CF9060
:1004A000BF900895CF93C82F40E061E081E00E94A3
:1004B000D70040E062E081E00E94D70040E063E0C6
:1004C00081E00E94D7008BB39C2F907F8F70892B87
:1004D0008BBB41E063E081E00E94D7008FE99FE0A1
:1004E0000197F1F700C0000040E063E081E00E9466
:1004F000D7002BB330E1C39FC0011124922F9F700E
:10050000892B8BBB41E063E081E00E94D7008FE93B
:100510009FE00197F1F700C0000040E063E081E058
:100520000E94D7008FE19EE40197F1F700C0000020
:10053000CF91089541E061E081E00E94660041E0D2
:1005400062E081E00E94660041E063E081E00E9499
:10055000660041E064E080E00E94660041E065E002
:1005600080E00E94660041E066E080E00E94660054
:1005700041E067E080E00E9466002FEF81EE94E0AA
:10058000215080409040E1F700C0000083E30E94CA
:10059000520282E30E94520288E20E9452028CE0E0
:1005A0000E94520281E00E94520286E00E945202A2
:1005B00082E00E9452020895CF93C82F41E061E08B
:1005C00081E00E94D70040E062E081E00E94D70015
:1005D00040E063E081E00E94D7008C2F807F8BBBDE
:1005E00041E063E081E00E94D7008FE99FE001973E
:1005F000F1F700C0000040E063E081E00E94D70016
:10060000C295C07FCBBB41E063E081E00E94D70090
:100610008FE99FE00197F1F700C0000040E063E040
:1006200081E00E94D7008FE19EE40197F1F700C0BE
:100630000000CF9108950F931F93CF93FC01808109
:10064000882359F08F01C0E00E94DC02CF5FF801DF
:10065000EC0FF11D80818111F7CFCF911F910F9188
:10066000089581E00E94520208958F929F92AF9266
:10067000BF92CF92DF92EF92FF926B017C019923A0
:100680005CF48DE20E94DC02F094E094D094C0947B
:10069000C11CD11CE11CF11C1C141D041E041F04F0
:1006A000A4F40F2EFAE08F2E912CA12CB12CF02D5A
:1006B000C701B601A50194010E949E0369017A0158
:1006C00012161306140615069CF3FF90EF90DF90A8
:1006D000CF90BF90AF909F908F900895CF93DF936E
:1006E0001F92CDB7DEB719820E949A020E9498032A
:1006F0000E94B001CE0101960E949B030E9431032B
:100700000E94FD018983882331F0682F70E080E02A
:1007100090E00E94350380E790E00E941B0380E890
:1007200090E00E941B03CE0101960E949B03F3CF31
:100730000E94490008950E9454000895052E97FBD9
:100740001EF400940E94B50357FD07D00E94BD031C
:1007500007FC03D04EF40C94B503509540953095AA
:1007600021953F4F4F4F5F4F08959095809570951D
:1007700061957F4F8F4F9F4F0895A1E21A2EAA1BBC
:10078000BB1BFD010DC0AA1FBB1FEE1FFF1FA21741
:10079000B307E407F50720F0A21BB30BE40BF50B3E
:1007A000661F771F881F991F1A9469F760957095C7
:1007B000809590959B01AC01BD01CF010895F894FF
:0207C000FFCF69
:1007C2003738392F3435362A3132332D63303D2BC9
:1007D20050415353574F524420504C4541534500CA
:1007E20050415353574F524420495320434F525282
:0607F20045435420000005
:00000001FF
