S01700004763634170706C69636174696F6E312E737265635B
S11300000C942A000C943F000C943F000C943F0085
S11300100C943F000C943F000C943F000C943F0060
S11300200C943F000C943F000C943F000C943F0050
S11300300C943F000C943F000C943F000C943F0040
S11300400C943F000C943F000C943F000C943F0030
S11300500C943F0011241FBECFE5D8E0DEBFCDBF16
S113006010E0A0E6B0E0E2EBF7E002C005900D92EC
S1130070A639B107D9F70E9466030C94D7030C94F0
S113008000003E9A3F98389A3D98359A309A319AB2
S1130090329A3398379A0895369A349BFECF64B1D6
S11300A044EF51E0649F9001659F300D1124232F8C
S11300B026952695FC012083118208954423B9F1E5
S11300C0413009F06BC0813089F028F08230C9F0EA
S11300D0833011F108952AB381E090E002C0880FC3
S11300E0991F6A95E2F7822B8ABB089527B381E0B2
S11300F090E002C0880F991F6A95E2F7822B87BBB4
S1130100089524B381E090E002C0880F991F6A9596
S1130110E2F7822B84BB089521B381E090E002C012
S1130120880F991F6A95E2F7822B81BB089581306D
S113013091F028F08230D9F0833029F108952AB360
S113014081E090E002C0880F991F6A95E2F78095DC
S113015082238ABB089527B381E090E002C0880F10
S1130160991F6A95E2F78095822387BB089524B38B
S113017081E090E002C0880F991F6A95E2F78095AC
S1130180822384BB089521B381E090E002C0880FEC
S1130190991F6A95E2F78095822381BB08954423D1
S11301A0B9F1413009F06BC0813089F028F0823018
S11301B0C9F0833011F108952BB381E090E002C0BF
S11301C0880F991F6A95E2F7822B8BBB089528B399
S11301D081E090E002C0880F991F6A95E2F7822BB4
S11301E088BB089525B381E090E002C0880F991F71
S11301F06A95E2F7822B85BB089522B381E090E0F3
S113020002C0880F991F6A95E2F7822B82BB08957A
S1130210813091F028F08230D9F0833029F10895AB
S11302202BB381E090E002C0880F991F6A95E2F732
S1130230809582238BBB089528B381E090E002C0AF
S1130240880F991F6A95E2F78095822388BB0895E9
S113025025B381E090E002C0880F991F6A95E2F708
S11302608095822385BB089522B381E090E002C08B
S1130270880F991F6A95E2F78095822382BB0895BF
S1130280813089F028F08230C9F0833011F108956B
S113029089B390E002C0959587956A95E2F78170DD
S11302A0FA018083089586B390E002C095958795FE
S11302B06A95E2F78170FA018083089583B390E030
S11302C002C0959587956A95E2F78170FA0180835B
S11302D0089580B390E002C0959587956A95E2F7FA
S11302E08170FA0180830895813089F028F082308A
S11302F0C9F0833011F108952BB381E090E002C07E
S1130300880F991F6A95E2F7822B8BBB089528B357
S113031081E090E002C0880F991F6A95E2F7822B72
S113032088BB089525B381E090E002C0880F991F2F
S11303306A95E2F7822B85BB089522B381E090E0B1
S113034002C0880F991F6A95E2F7822B82BB089539
S113035041E060E083E00E945E0041E061E083E010
S11303600E945E0041E062E083E00E945E0041E0A2
S113037063E083E00E945E0040E064E083E00E946A
S11303805E0040E065E083E00E945E0040E066E0DD
S113039083E00E945E0040E067E083E00E945E002C
S11303A064E083E00E94740165E083E00E947401CC
S11303B066E083E00E94740167E083E00E947401B8
S11303C041E060E083E00E94CF0041E061E083E02F
S11303D00E94CF0041E062E083E00E94CF0041E050
S11303E063E083E00E94CF000895BF92CF92DF9232
S11303F0EF92FF920F931F93CF93DF931F92CDB78A
S1130400DEB719820F2EF0E6CF2EF0E0DF2EF02DAE
S1130410B12C00E040E0602F83E00E94CF00760121
S113042014E0AE014F5F5F4F612F83E00E944001F3
S11304308981811112C0F701B080AE014F5F5F4F17
S1130440612F83E00E94400189818823B1F38FE307
S11304509CE90197F1F700C000001F5F94E0E90EEA
S1130460F11C1830F1F641E0602F83E00E94CF00C8
S11304700F5FEFEFCE1ADE0A043061F68B2D0F907A
S1130480DF91CF911F910F91FF90EF90DF90CF906C
S1130490BF900895CF93C82F40E061E081E00E94AF
S11304A0CF0040E062E081E00E94CF0040E063E0E2
S11304B081E00E94CF008BB39C2F907F8F70892B9B
S11304C08BBB41E063E081E00E94CF008FE99FE0B5
S11304D00197F1F700C0000040E063E081E00E9472
S11304E0CF002BB330E1C39FC0011124922F9F7022
S11304F0892B8BBB41E063E081E00E94CF008FE950
S11305009FE00197F1F700C0000040E063E081E064
S11305100E94CF008FE19EE40197F1F700C0000034
S1130520CF91089541E061E081E00E945E0041E0E6
S113053062E081E00E945E0041E063E081E00E94AD
S11305405E0041E064E080E00E945E0041E065E01E
S113055080E00E945E0041E066E080E00E945E0070
S113056041E067E080E00E945E002FEF81EE94E0BE
S1130570215080409040E1F700C0000083E30E94D6
S11305804A0282E30E944A0288E20E944A028CE004
S11305900E944A0281E00E944A0286E00E944A02C6
S11305A082E00E944A020895CF93C82F41E061E09F
S11305B081E00E94CF0040E062E081E00E94CF0031
S11305C040E063E081E00E94CF008C2F807F8BBBF2
S11305D041E063E081E00E94CF008FE99FE0019752
S11305E0F1F700C0000040E063E081E00E94CF002A
S11305F0C295C07FCBBB41E063E081E00E94CF00A5
S11306008FE99FE00197F1F700C0000040E063E04C
S113061081E00E94CF008FE19EE40197F1F700C0D2
S11306200000CF9108950F931F93CF93FC01808115
S1130630882359F08F01C0E00E94D402CF5FF801F3
S1130640EC0FF11D80818111F7CFCF911F910F9194
S1130650089581E00E944A0208958F929F92AF927A
S1130660BF92CF92DF92EF92FF926B017C019923AC
S11306705CF48DE20E94D402F094E094D094C0948F
S1130680C11CD11CE11CF11C1C141D041E041F04FC
S1130690A4F40F2EFAE08F2E912CA12CB12CF02D66
S11306A0C701B601A50194010E94960369017A016C
S11306B012161306140615069CF3FF90EF90DF90B4
S11306C0CF90BF90AF909F908F900895CF93DF937A
S11306D01F92CDB7DEB719820E9492020E94900346
S11306E00E94A801CE0101960E9493030E9429034F
S11306F00E94F5018983882331F0682F70E080E03F
S113070090E00E942D0380E790E00E94130380E8AC
S113071090E00E941303CE0101960E949303F3CF4D
S11307200E94410008950E944C000895052E97FBF5
S11307301EF400940E94AD0357FD07D00E94B50338
S113074007FC03D04EF40C94AD03509540953095BE
S113075021953F4F4F4F5F4F089590958095709529
S113076061957F4F8F4F9F4F0895A1E21A2EAA1BC8
S1130770BB1BFD010DC0AA1FBB1FEE1FFF1FA2174D
S1130780B307E407F50720F0A21BB30BE40BF50B4A
S1130790661F771F881F991F1A9469F760957095D3
S11307A0809590959B01AC01BD01CF010895F8940B
S10507B0FFCF75
S11307B23738392F3435362A3132332D63303D2BD5
S11307C250415353574F524420504C4541534500D6
S11307D250415353574F524420495320434F52528E
S10907E245435420000011
S9030000FC
